{
    "contractName": "WeatherOracle",
    "abi": [
        {
            "inputs": [],
            "stateMutability": "nonpayable",
            "type": "constructor"
        },
        {
            "anonymous": false,
            "inputs": [
                {
                    "indexed": false,
                    "internalType": "uint256",
                    "name": "lat",
                    "type": "uint256"
                },
                {
                    "indexed": false,
                    "internalType": "uint256",
                    "name": "lon",
                    "type": "uint256"
                },
                {
                    "indexed": false,
                    "internalType": "uint256",
                    "name": "jobId",
                    "type": "uint256"
                }
            ],
            "name": "NewJob",
            "type": "event"
        },
        {
            "inputs": [
                {
                    "internalType": "uint256",
                    "name": "lat",
                    "type": "uint256"
                },
                {
                    "internalType": "uint256",
                    "name": "lon",
                    "type": "uint256"
                }
            ],
            "name": "getWeather",
            "outputs": [],
            "stateMutability": "nonpayable",
            "type": "function"
        },
        {
            "inputs": [
                {
                    "internalType": "uint256",
                    "name": "",
                    "type": "uint256"
                }
            ],
            "name": "jobResults",
            "outputs": [
                {
                    "internalType": "uint256",
                    "name": "",
                    "type": "uint256"
                }
            ],
            "stateMutability": "view",
            "type": "function"
        },
        {
            "inputs": [
                {
                    "internalType": "uint256",
                    "name": "",
                    "type": "uint256"
                }
            ],
            "name": "jobStatus",
            "outputs": [
                {
                    "internalType": "bool",
                    "name": "",
                    "type": "bool"
                }
            ],
            "stateMutability": "view",
            "type": "function"
        },
        {
            "inputs": [
                {
                    "internalType": "uint256",
                    "name": "temp",
                    "type": "uint256"
                },
                {
                    "internalType": "uint256",
                    "name": "_jobId",
                    "type": "uint256"
                }
            ],
            "name": "updateWeather",
            "outputs": [],
            "stateMutability": "nonpayable",
            "type": "function"
        }
    ],
    "bytecode": "608060405234801561001057600080fd5b5060016002556101f6806100256000396000f3fe608060405234801561001057600080fd5b506004361061004c5760003560e01c806391571df014610051578063a3d6064514610066578063a8e5e21914610099578063aa2c6636146100cc575b600080fd5b61006461005f36600461015e565b610102565b005b610086610074366004610180565b60016020526000908152604090205481565b6040519081526020015b60405180910390f35b6100bc6100a7366004610180565b60006020819052908152604090205460ff1681565b6040519015158152602001610090565b6100646100da36600461015e565b600090815260016020818152604080842094909455829052919020805460ff19169091179055565b600254604080518481526020810184905280820192909252517fcb15c0bcfc2eef262956a089f66b8a2d6bd91a0d1020c3bd0371918b5d9b4a1a9181900360600190a16002805490600061015583610199565b91905055505050565b6000806040838503121561017157600080fd5b50508035926020909101359150565b60006020828403121561019257600080fd5b5035919050565b6000600182016101b957634e487b7160e01b600052601160045260246000fd5b506001019056fea264697066735822122053b18e66b9a1dd031e4f02ee7d84c2fa1d1ec6354a101e39130a64355142247564736f6c634300080f0033",
    "sourcePath": "/home/camden/Documents/scratch/oracle/Oracle.sol",
    "compiler": {
        "name": "solc",
        "version": "0.8.15+commit.e14f2714"
    },
    "functionHashes": {
        "getWeather(uint256,uint256)": "91571df0",
        "jobResults(uint256)": "a3d60645",
        "jobStatus(uint256)": "a8e5e219",
        "updateWeather(uint256,uint256)": "aa2c6636"
    },
    "gasEstimates": {
        "creation": {
            "codeDepositCost": "100400",
            "executionCost": "22253",
            "totalCost": "122653"
        },
        "external": {
            "getWeather(uint256,uint256)": "28229",
            "jobResults(uint256)": "2427",
            "jobStatus(uint256)": "2475",
            "updateWeather(uint256,uint256)": "46744"
        }
    }
}